{
  "_format": "hh-sol-artifact-1",
  "contractName": "FundMe",
  "sourceName": "contracts/FundMe.sol",
  "abi": [
    {
      "inputs": [
        {
          "internalType": "address",
          "name": "priceFeedAddress",
          "type": "address"
        }
      ],
      "stateMutability": "nonpayable",
      "type": "constructor"
    },
    {
      "inputs": [],
      "name": "FundMe__NotEnoughEth",
      "type": "error"
    },
    {
      "inputs": [],
      "name": "FundMe__NotOwner",
      "type": "error"
    },
    {
      "stateMutability": "payable",
      "type": "fallback"
    },
    {
      "inputs": [],
      "name": "MINIMUM_USD",
      "outputs": [
        {
          "internalType": "uint256",
          "name": "",
          "type": "uint256"
        }
      ],
      "stateMutability": "view",
      "type": "function"
    },
    {
      "inputs": [],
      "name": "fund",
      "outputs": [],
      "stateMutability": "payable",
      "type": "function"
    },
    {
      "inputs": [
        {
          "internalType": "address",
          "name": "funder",
          "type": "address"
        }
      ],
      "name": "getAddressToAmountFunded",
      "outputs": [
        {
          "internalType": "uint256",
          "name": "",
          "type": "uint256"
        }
      ],
      "stateMutability": "view",
      "type": "function"
    },
    {
      "inputs": [
        {
          "internalType": "uint256",
          "name": "index",
          "type": "uint256"
        }
      ],
      "name": "getFunder",
      "outputs": [
        {
          "internalType": "address",
          "name": "",
          "type": "address"
        }
      ],
      "stateMutability": "view",
      "type": "function"
    },
    {
      "inputs": [],
      "name": "getOwner",
      "outputs": [
        {
          "internalType": "address",
          "name": "",
          "type": "address"
        }
      ],
      "stateMutability": "view",
      "type": "function"
    },
    {
      "inputs": [],
      "name": "getPriceFeed",
      "outputs": [
        {
          "internalType": "contract AggregatorV3Interface",
          "name": "",
          "type": "address"
        }
      ],
      "stateMutability": "view",
      "type": "function"
    },
    {
      "inputs": [],
      "name": "withdraw",
      "outputs": [],
      "stateMutability": "nonpayable",
      "type": "function"
    },
    {
      "stateMutability": "payable",
      "type": "receive"
    }
  ],
  "bytecode": "0x60c060405234801561001057600080fd5b50604051610ed6380380610ed683398181016040528101906100329190610103565b3373ffffffffffffffffffffffffffffffffffffffff1660808173ffffffffffffffffffffffffffffffffffffffff16815250508073ffffffffffffffffffffffffffffffffffffffff1660a08173ffffffffffffffffffffffffffffffffffffffff168152505050610130565b600080fd5b600073ffffffffffffffffffffffffffffffffffffffff82169050919050565b60006100d0826100a5565b9050919050565b6100e0816100c5565b81146100eb57600080fd5b50565b6000815190506100fd816100d7565b92915050565b600060208284031215610119576101186100a0565b5b6000610127848285016100ee565b91505092915050565b60805160a051610d73610163600039600081816101b801526105f601526000818161032101526105ce0152610d736000f3fe6080604052600436106100745760003560e01c8063893d20e81161004e578063893d20e81461010c5780639e87a5cd14610137578063b60d428814610162578063d7b4750c1461016c57610083565b80630343fb251461008d5780633ccfd60b146100ca5780636b69a592146100e157610083565b36610083576100816101a9565b005b61008b6101a9565b005b34801561009957600080fd5b506100b460048036038101906100af9190610839565b6102d7565b6040516100c1919061087f565b60405180910390f35b3480156100d657600080fd5b506100df61031f565b005b3480156100ed57600080fd5b506100f66105bd565b604051610103919061087f565b60405180910390f35b34801561011857600080fd5b506101216105ca565b60405161012e91906108a9565b60405180910390f35b34801561014357600080fd5b5061014c6105f2565b6040516101599190610923565b60405180910390f35b61016a6101a9565b005b34801561017857600080fd5b50610193600480360381019061018e919061096a565b61061a565b6040516101a091906108a9565b60405180910390f35b6802b5e3af16b18800006101e67f00000000000000000000000000000000000000000000000000000000000000003461066290919063ffffffff16565b1161021d576040517f5ed3980900000000000000000000000000000000000000000000000000000000815260040160405180910390fd5b346000803373ffffffffffffffffffffffffffffffffffffffff1673ffffffffffffffffffffffffffffffffffffffff168152602001908152602001600020600082825461026b91906109c6565b925050819055506001339080600181540180825580915050600190039060005260206000200160009091909190916101000a81548173ffffffffffffffffffffffffffffffffffffffff021916908373ffffffffffffffffffffffffffffffffffffffff160217905550565b60008060008373ffffffffffffffffffffffffffffffffffffffff1673ffffffffffffffffffffffffffffffffffffffff168152602001908152602001600020549050919050565b7f000000000000000000000000000000000000000000000000000000000000000073ffffffffffffffffffffffffffffffffffffffff163373ffffffffffffffffffffffffffffffffffffffff16146103a4576040517f579610db00000000000000000000000000000000000000000000000000000000815260040160405180910390fd5b6000600180548060200260200160405190810160405280929190818152602001828054801561042857602002820191906000526020600020905b8160009054906101000a900473ffffffffffffffffffffffffffffffffffffffff1673ffffffffffffffffffffffffffffffffffffffff16815260200190600101908083116103de575b5050505050905060005b81518110156104ac5760008282815181106104505761044f6109fa565b5b6020026020010151905060008060008373ffffffffffffffffffffffffffffffffffffffff1673ffffffffffffffffffffffffffffffffffffffff16815260200190815260200160002081905550508080600101915050610432565b50600067ffffffffffffffff8111156104c8576104c7610a29565b5b6040519080825280602002602001820160405280156104f65781602001602082028036833780820191505090505b506001908051906020019061050c92919061072f565b5060003373ffffffffffffffffffffffffffffffffffffffff164760405161053390610a89565b60006040518083038185875af1925050503d8060008114610570576040519150601f19603f3d011682016040523d82523d6000602084013e610575565b606091505b50509050806105b9576040517f08c379a00000000000000000000000000000000000000000000000000000000081526004016105b090610afb565b60405180910390fd5b5050565b6802b5e3af16b188000081565b60007f0000000000000000000000000000000000000000000000000000000000000000905090565b60007f0000000000000000000000000000000000000000000000000000000000000000905090565b6000600182815481106106305761062f6109fa565b5b9060005260206000200160009054906101000a900473ffffffffffffffffffffffffffffffffffffffff169050919050565b60008061066e8361069e565b90506000670de0b6b3a764000085836106879190610b1b565b6106919190610b8c565b9050809250505092915050565b6000808273ffffffffffffffffffffffffffffffffffffffff1663feaf968c6040518163ffffffff1660e01b815260040160a060405180830381865afa1580156106ec573d6000803e3d6000fd5b505050506040513d601f19601f820116820180604052508101906107109190610c4a565b5050509150506402540be400816107279190610cc5565b915050919050565b8280548282559060005260206000209081019282156107a8579160200282015b828111156107a75782518260006101000a81548173ffffffffffffffffffffffffffffffffffffffff021916908373ffffffffffffffffffffffffffffffffffffffff1602179055509160200191906001019061074f565b5b5090506107b591906107b9565b5090565b5b808211156107d25760008160009055506001016107ba565b5090565b600080fd5b600073ffffffffffffffffffffffffffffffffffffffff82169050919050565b6000610806826107db565b9050919050565b610816816107fb565b811461082157600080fd5b50565b6000813590506108338161080d565b92915050565b60006020828403121561084f5761084e6107d6565b5b600061085d84828501610824565b91505092915050565b6000819050919050565b61087981610866565b82525050565b60006020820190506108946000830184610870565b92915050565b6108a3816107fb565b82525050565b60006020820190506108be600083018461089a565b92915050565b6000819050919050565b60006108e96108e46108df846107db565b6108c4565b6107db565b9050919050565b60006108fb826108ce565b9050919050565b600061090d826108f0565b9050919050565b61091d81610902565b82525050565b60006020820190506109386000830184610914565b92915050565b61094781610866565b811461095257600080fd5b50565b6000813590506109648161093e565b92915050565b6000602082840312156109805761097f6107d6565b5b600061098e84828501610955565b91505092915050565b7f4e487b7100000000000000000000000000000000000000000000000000000000600052601160045260246000fd5b60006109d182610866565b91506109dc83610866565b92508282019050808211156109f4576109f3610997565b5b92915050565b7f4e487b7100000000000000000000000000000000000000000000000000000000600052603260045260246000fd5b7f4e487b7100000000000000000000000000000000000000000000000000000000600052604160045260246000fd5b600081905092915050565b50565b6000610a73600083610a58565b9150610a7e82610a63565b600082019050919050565b6000610a9482610a66565b9150819050919050565b600082825260208201905092915050565b7f43616c6c206661696c6564000000000000000000000000000000000000000000600082015250565b6000610ae5600b83610a9e565b9150610af082610aaf565b602082019050919050565b60006020820190508181036000830152610b1481610ad8565b9050919050565b6000610b2682610866565b9150610b3183610866565b9250828202610b3f81610866565b91508282048414831517610b5657610b55610997565b5b5092915050565b7f4e487b7100000000000000000000000000000000000000000000000000000000600052601260045260246000fd5b6000610b9782610866565b9150610ba283610866565b925082610bb257610bb1610b5d565b5b828204905092915050565b600069ffffffffffffffffffff82169050919050565b610bdc81610bbd565b8114610be757600080fd5b50565b600081519050610bf981610bd3565b92915050565b6000819050919050565b610c1281610bff565b8114610c1d57600080fd5b50565b600081519050610c2f81610c09565b92915050565b600081519050610c448161093e565b92915050565b600080600080600060a08688031215610c6657610c656107d6565b5b6000610c7488828901610bea565b9550506020610c8588828901610c20565b9450506040610c9688828901610c35565b9350506060610ca788828901610c35565b9250506080610cb888828901610bea565b9150509295509295909350565b6000610cd082610bff565b9150610cdb83610bff565b9250828202610ce981610bff565b91507f80000000000000000000000000000000000000000000000000000000000000008414600084121615610d2157610d20610997565b5b8282058414831517610d3657610d35610997565b5b509291505056fea2646970667358221220363e3ccf53beced01ff68f3526a49beaaf769b21ee16453df637c91374e38b3464736f6c634300081b0033",
  "linkReferences": {},
  "deployedLinkReferences": {}
}